:020000040800F2
:1000000000500020C947000835400008394000086A
:100010003D40000841400008454000080000000045
:10002000000000000000000000000000494000083F
:100030004D400008000000005140000855400008F5
:10004000114800081148000811480008114800082C
:10005000114800081148000811480008114800081C
:1000600011480008114800085940000811480008CC
:1000700011480008114800081148000811480008FC
:1000800011480008114800081148000811480008EC
:100090006140000811480008114800081148000894
:1000A00011480008114800081148000811480008CC
:1000B00011480008114800081148000811480008BC
:1000C00011480008114800081148000811480008AC
:1000D000114800081148000811480008114800089C
:1000E0006D40000811480008114800080000000099
:1000F0000000000000000000000000000000000000
:0C01000000000000000000005FF808F1A3
:10010C0010B5054C237833B9044B13B10448AFF345
:10011C0000800123237010BD640600200000000045
:10012C0014480008084B10B51BB108490848AFF338
:10013C0000800848036803B910BD074B002BFBD0A7
:10014C00BDE81040184700BF000000006806002002
:10015C0014480008640600200000000070B50F4E23
:10016C000F4D761BB61018BF002405D0013455F87E
:10017C00043B9847A642F9D10A4E0B4D04F044FBC0
:10018C00761BB61018BF002406D0013455F8043B7A
:10019C009847A642F9D170BD70BD00BF78490008E0
:1001AC0078490008804900087849000870B4840731
:1001BC0046D0541E002A41D0CDB2034602E0621E46
:1001CC00E4B3144603F8015B9A07F8D1032C2ED93B
:1001DC00CDB245EA05250F2C45EA054519D9264629
:1001EC0003F11002103E0F2E42F8105C42F80C5C2A
:1001FC0042F8085C42F8045C02F11002F2D8A4F157
:10020C00100222F00F0204F00F041032032C1344DE
:10021C000DD91E462246043A032A46F8045BFAD846
:10022C00221F22F003020432134404F003042CB105
:10023C00C9B21C4403F8011BA342FBD170BC70472C
:10024C0014460346C2E700BF024B13B1024800F04C
:10025C0005B8704700000000750200080023014635
:10026C001A46184600F014B838B5074D074C2C1B2D
:10027C00A41005D0013C55F8043D9847002CF9D149
:10028C00BDE8384004F0C6BA84490008804900082B
:10029C002DE9F047254C064625688846D5F8484197
:1002AC0092469946C4B360681F2817DC411C76B18E
:1002BC0004EB8003C3F888A0D4F888510122824053
:1002CC001543022EC4F88851C3F808911ED0831C24
:1002DC006160002044F82380BDE8F087144B03B321
:1002EC004FF4C870AFF300800446D0B1D5F8483154
:1002FC00002784E888003846C5F848410121C4F835
:10030C008871C4F88C71002EE1D0D1E7D4F88C310F
:10031C001A43C4F88C21DAE705F5A674C5F84841F0
:10032C00C1E74FF0FF30BDE8F08700BF444800083C
:10033C000000000038B50E4A4FF47A7311780D4A5C
:10034C00B3FBF1F312680546B2FBF3F000F0A4F82E
:10035C0008B90F2D01D9012038BD044602462946A3
:10036C004FF0FF3000F052F8034B20461D6038BDB3
:10037C002C040020380500202804002008B5074A6A
:10038C000320136843F01003136000F02DF80020D5
:10039C00FFF7D0FF03F026FE002008BD002002402E
:1003AC00034A0449136809780B441360704700BF73
:1003BC00980600202C040020014B1868704700BFE1
:1003CC009806002038B50446FFF7F6FF631C054677
:1003DC0002D0044B1B781C44FFF7EEFF401B8442F9
:1003EC00FAD838BD2C0400204FF6FF020649000253
:1003FC00CB6800F4E0601A4042F0BF6343F4003372
:10040C000343CB60704700BF00ED00E030B4194BE4
:10041C00DB68C3F30223C3F10705042D03F10404C5
:10042C0028BF0425062C18D9033B01249C40013C11
:10043C0022400124AC40013C214001FA03F3002886
:10044C0042EA03020CDB120100F16040D2B200F56B
:10045C00614080F8002330BC704700221346E8E767
:10046C00054B00F00F001201D2B203441A7630BCD7
:10047C00704700BF00ED00E0FCEC00E0002807DB5B
:10048C0000F01F010123034A40098B4042F8203041
:10049C00704700BF00E100E00138B0F1807F0DD261
:1004AC0030B4074B074CF02500220721586084F824
:1004BC0023509A601960104630BC70470120704779
:1004CC0010E000E000ED00E02DE9F04F0E6883B085
:1004DC00002E00F08A8000252A46DFF8C0E1694C26
:1004EC00DFF8BCC103E0013236FA02F37DD0012300
:1004FC00934033EA0607F6D14E68122E00F0A7801F
:10050C0000F28880022E00F09F807ED9032E00F02E
:10051C009980112E01D1CD680435FF2B6DD8814601
:10052C000668B24696004FF00F0808FA06FB2AEA56
:10053C000B0A05FA06F64AEA0606C9F800604E6888
:10054C00F60058D5504E504FB66922F0030946F0CC
:10055C000106BE61BE6909F1804906F001060196EB
:10056C0009F5803902F00306DDF804A0B600D9F8CD
:10057C0008A008FA06F870452AEA080874D0604505
:10058C0076D0424FB84278D0414FB8420CBF4FF0B2
:10059C00030A4FF0040A0AFA06F648EA0606C9F8F6
:1005AC0008604E6816F4803F266814BF1E439E43B5
:1005BC0026604E6816F4003F666814BF1E439E43C7
:1005CC0066604E6816F4801FA66814BF1E439E43D7
:1005DC00A6604E6816F4001FE66809D03343E3604A
:1005EC000E68013236FA02F381D103B0BDE8F08F08
:1005FC0026EA0303E3600E6875E7A2F10806D0F85B
:10060C0004A0B60000F104098DE79EB1012E84D13F
:10061C00CD6882E71F4FBE420CD01BD91E4FBE4285
:10062C0008D007F58037BE4204D0DFF87880464505
:10063C007FF473AF8D68CDB1012D0CBF03614361A5
:10064C0008256AE7002568E7CD68083565E7CD68B9
:10065C000C3562E7DFF850804645EBD008F5803862
:10066C0046457FF45AAFE5E7002696E7042554E7A4
:10067C004FF0010A0AFA06F68FE74FF0020A0AFA5F
:10068C0006F68AE700040140001002400010014009
:10069C00001401400000211000003110000801403E
:1006AC00000C014000002210000011108368194258
:1006BC0014BF01200020704702B909040161704782
:1006CC00C36803EA010221EA030141EA0241016124
:1006DC00704700BF044A5169014200D1704708B508
:1006EC00506103F059FC08BD00040140F0B587B01F
:1006FC00002875D090F8A932044603F0FF02002BB5
:10070C0069D02546032384F8A932206801F04AFAFF
:10071C0055F810EB6F462E460FCE0FC73368261DCB
:10072C003B60704696E80E0001F02AFA074630B19D
:10073C0001252846022384F8A93207B0F0BD0146F2
:10074C00206801F039FA606858B339463A464FF0E0
:10075C00010E01EB810304EBC3034F1C83F828103B
:10076C00D986F9B2814283F829E083F82B209A6369
:10077C00DA631A64EDD30022114602EB820304EB18
:10078C00C303571C83F86821FAB2824283F86911BB
:10079C0083F86B11C3F87811C3F87C11C3F880117E
:1007AC00EBD36F460FCDD4F800E00FC72B68704623
:1007BC003B6096E80E0001F001FA05460028B7D11F
:1007CC00012384F82400206884F8A93202F0A2F8EE
:1007DC00284607B0F0BD80F8A82203F03FFE90E752
:1007EC000125284607B0F0BD38B590F8A832012B8A
:1007FC0001D1022038BD0446012580F8A8520068BA
:10080C0001F0C6F92946204603F054FF206802F097
:10081C007FF8002084F8A80238BD00BF2DE9F0470E
:10082C00044684B0006802F077F810F4004F20689A
:10083C0040F0918002F070F8420500F18F82206840
:10084C0002F06AF8430408D52268B2F8443023F465
:10085C0080431B041B0CA2F84430206802F05CF8A7
:10086C00870408D52268B2F8443023F400531B04E3
:10087C001B0CA2F84430206802F04EF8C60400F1BC
:10088C004E82206802F048F805054DD52668ADF17A
:10089C000202314613460DF10E0531F8040B23F814
:1008AC00020FAB42F9D1B6F840309BB243F00103D2
:1008BC00A6F840302168B1F8403023F001031B0446
:1008CC001B0CA1F840302168B1F844305805FBD519
:1008DC00B1F84400002320F480600004000CA1F85F
:1008EC004400216832F8020FC8520433202BF8D18F
:1008FC0022682046B2F840309BB243F00803A2F8BD
:10090C0040302268B2F8443023F400631B041B0C03
:10091C00A2F844302268B2F840309BB243F0040392
:10092C00A2F8403003F0EAFD206801F0F5FF8205E3
:10093C0000F1E881206801F0EFFFC30508D52268BB
:10094C00B2F8443023F480731B041B0CA2F844301F
:10095C0004B0BDE8F087002504F52C76B0F84430DF
:10096C0019047FF567AFB0F8441089B211F00F0786
:10097C0065D101F01001038889B29BB2002900F007
:10098C00B28003F40067BFB2002F40F098811B04C3
:10099C00E4D5038823F070031B051B0D43F0800383
:1009AC000380206894F86821B0F850309BB206336D
:1009BC0003EBC20300EB4303B3F80034C3F30903A6
:1009CC00C4F8843193B1D4F87C1179B1B4F86E21A8
:1009DC0001F0B6FFD4F87C21D4F8843120461344BE
:1009EC003946C4F87C3103F05FFD2068B0F8503014
:1009FC00D4F878219BB203F20C43C118002A40F0C2
:100A0C00E581C25A22F4F8421204120CC252C25AA4
:100A1C006FEA42426FEA524292B2C2522268138883
:100A2C0023F4804323F070031B041B0C83F440530A
:100A3C0043F4004343F08003138020688EE730F8C2
:100A4C0027904FEA87081FFA89F919F4004F40F0F4
:100A5C00CD8019F0800F81D030F8273008EB0702D9
:100A6C009BB223F4E14323F070036FEA43436FEA34
:100A7C0053439BB220F8273004EBC20A9AF82B3070
:100A8C00022B62D020689AF82820B0F85030B84475
:100A9C009BB2023303EBC20300EB4303B3F800E455
:100AAC0004EBC808D8F84030CEF3090E734540F279
:100ABC00FD80CEEB0303C8F84030002B00F0F8802B
:100ACC00D8F83C30D8F8442001377344724407EB13
:100ADC00870104EBC101C8F83C30C8F8442001F090
:100AEC0007FB20683AE723F4E14323F070036FEA35
:100AFC0043436FEA53439BB20380206894F8283039
:100B0C00B0F85020E76B92B2023202EBC30300EB59
:100B1C004303B3F800342046C3F309031F44636452
:100B2C00E76303F0CBFC94F82430002B5CD0236CEF
:100B3C00002B59D194F82420216842F08002A1F8AE
:100B4C004C20206884F8243008E719F4807F99D071
:100B5C0009F040039BB22068002B40F06C81B0F888
:100B6C0050209AF828E092B2063202EBCE0200EB4B
:100B7C004202B2F800C4DAF84010CCF3090C61451B
:100B8C00C0F07182CCEB0101CAF84010002900F0D2
:100B9C006C8219F4804F0CD130F82E2022F0F00228
:100BAC001205120D42F4404242F0800220F82E2031
:100BBC00206808EB070E04EBCE0E9EF84C20012AA1
:100BCC0000F00D829AF8282030F8223023F4E0430C
:100BDC0023F040031B041B0C83F0300343F400434D
:100BEC0043F0800320F822302068B7E630F8273035
:100BFC0008EB070123F070031B051B0D43F080036A
:100C0C0020F8273004EBC10191F87431002B00F06F
:100C1C00C38091F86B31022B00F0828191F868014E
:100C2C00226832F8203023F0F0031B051B0D43F42F
:100C3C00004343F0C00322F82030206891F868E1AB
:100C4C0030F82E305B0440F1CB80B0F8502092B2DB
:100C5C00023202EBCE0300EB4303B3F80034C3F3D0
:100C6C000903002B40F054819A4608EB0703DB0084
:100C7C00E218D2F88401D2F87C115044C2F88401F5
:100C8C00D2F880015144C2F87C1120B1D2F87821FD
:100C9C00524540F2BC8008EB070304EBC30320462B
:100CAC0093F8681103F000FC2068D2E6C8F84050B5
:100CBC0020469AF8281003F001FC20684EE6B0F8A4
:100CCC00503094F868219BB2063303EBC20300EB5F
:100CDC004303B3F80034B4F86E21C3F30903C4F82A
:100CEC008431314601F02CFE22682046138823F013
:100CFC0070031B051B0D43F08003138003F0CEFB28
:100D0C0020682BE622682046B2F8443023F40073A6
:100D1C001B041B0CA2F8443003F0DAFB0AE6226831
:100D2C002046B2F8403023F004031B041B0CA2F83D
:100D3C0040302268B2F8403023F008031B041B0C2F
:100D4C00A2F8403003F0EAFB2268B2F8443023F4F6
:100D5C0080531B041B0CA2F8443092E522682046F9
:100D6C00B2F8443023F480631B041B0CA2F844300B
:100D7C0003F0B2FB94F8A832012B3FF460AD0025D0
:100D8C00012384F8A83284F824502946206801F005
:100D9C00B9FD84F8A85252E5206891F86821B0F8A2
:100DAC0050309BB2063303EBC20300EB4303B3F8A2
:100DBC000034C3F30903002B3FF456AFB1F86E2196
:100DCC00D1F87C119A4601F0BBFD4EE73E2A26D89D
:100DDC005308D00748BF01339B029BB20B801DE622
:100DEC00B0F850309BB2063303EBCE0300EB430359
:100DFC00B3F80034C3F30903002B3FF435AFB1F85B
:100E0C007221D1F87C119A4601F09AFD2DE703F579
:100E1C00B4712144206801F06BF9206819E653097C
:100E2C00D20608BF03F1FF336FEAC3636FEA534383
:100E3C009BB20B80F2E5B0F850309AF828109BB2B8
:100E4C00023303EBC10300EB4303B3F800E4DAF81D
:100E5C004020CEF3090E724540F2A880CEEB020280
:100E6C00CAF84020002A00F0A38019F4804F0CD05F
:100E7C0030F8213023F0F0031B051B0D43F44043E5
:100E8C0043F0800320F82130206808EB070104EBC5
:100E9C00C10191F84C30012B7FF494AECA6BD1F8A0
:100EAC0048C002EB0E03CB634A6C8B6B72449C45BF
:100EBC004A64C0F05181C3EB0C028A649AF8292071
:100ECC00002A40F04581B0F850209AF8281092B2D0
:100EDC0002F2044202EB01114218002B40F0618136
:100EEC00425A22F4F8421204120C4252425A6FEA4D
:100EFC0042426FEA524292B24252206808EB07011A
:100F0C0004EBC1010A8EC96B01F00CFD206859E697
:100F1C00B1F87021D1F87C119A4601F011FDA4E6CC
:100F2C0009F4804292B2002A00F0A780226891F85E
:100F3C0068E1B2F85030D1F880019BB2023303EB78
:100F4C00CE0302EB4303B3F80034C3F30903984216
:100F5C009A46C0F0E380C01AC1F88001002800F066
:100F6C00DF8019F0400F12D008EB070204EBC2022D
:100F7C0092F86801216831F8202022F0F002120565
:100F8C00120D42F4004242F0C00221F82020002B46
:100F9C003FF46BAE08EB070104EBC101B1F8702113
:100FAC002068D1F87C1101F0CBFC5EE6CAF8405009
:100FBC00204603F083FA19F4804F52D09AF8281087
:100FCC00226832F8213023F0F0031B051B0D43F48B
:100FDC00404343F0800322F821302068F2E5DEF82C
:100FEC003C10DEF844206144DEF84890CEF83C100A
:100FFC00DEF8381062448945CEF84420C0F0BF803A
:10100C00C1EB0902CEF848209AF82920002A40F0BA
:10101C00B280B0F850209AF828E092B202F20C425A
:10102C0002EB0E1E0EEB0002002940F0D1803EF8C0
:10103C00002022F4F8421204120C2EF800203EF884
:10104C0000206FEA42426FEA524292B22EF8002020
:10105C0008EB070104EBC1014A8E2068C96B01F053
:10106C0061FC2068AEE5CAF840307146204603F0BA
:10107C0025FA19F4804FF4D1A0E7206891F868C1E3
:10108C00B0F85030D1F880E19BB2063303EBCC03BF
:10109C0000EB4303B3F80034C3F309039E459A46AF
:1010AC0029D3C3EB0E02C1F8802132B319F0400FE3
:1010BC0012D108EB070204EBC20292F86801216816
:1010CC0031F8202022F0F0021205120D42F40042F9
:1010DC0042F0C00221F82020002B3FF4C6AD08EBF3
:1010EC00070104EBC101B1F872212068D1F87C1121
:1010FC0001F026FCB9E5C1F8802130F82C2022F44F
:10110C00804222F070021204120C82F4005242F45B
:10111C00004242F0800220F82C20C7E7C1F8805131
:10112C0032F82E1021F4804121F070010904090CD1
:10113C0081F4005141F4004141F0800122F82E105D
:10114C000FE781F84C508D649AF82920F2B1634670
:10115C00012A48D09BB2D1E6BCF1000FF1D181F845
:10116C004CC07346AAE6CEF848508EF84C509AF80C
:10117C00292012B34946012A42D08BB268E7B9F153
:10118C00000FF0D18EF84C9061463DE7B0F850302E
:10119C009AF828209BB203F2044303EB0212634635
:1011AC0002443E2B38D85908D80748BF0131890270
:1011BC0089B211809BB22068A0E64946B0F8503045
:1011CC009AF828209BB203F20C4303EB0212024460
:1011DC003E292FD84B08C80748BF01339B029BB24E
:1011EC0013808BB234E7B0F850209AF8281092B2E2
:1011FC0002F204429BB202EB0112835220687DE69C
:10120C00B0F850209AF828E092B202F20C428BB25D
:10121C0002EB0E1283521BE75909D80608BF01F1E5
:10122C00FF316FEAC1616FEA514189B211809BB203
:10123C00206863E64B09C80608BF03F1FF336FEA69
:10124C00C3636FEA53439BB213808BB200E700BFBA
:10125C0090F8A822012A01D10220704710B504464B
:10126C00012284F8241080F8A822006801F04AFBBF
:10127C00002084F8A80210BD70B501F0070509061E
:10128C0024D405EB8504E40004F5B4710026044471
:10129C00014484F869614C780D700A61CB7004B11B
:1012AC00CD81022B04BF00230B7190F8A832012BC7
:1012BC0001D1022070BD0446012380F8A8320068D9
:1012CC0000F090FC002084F8A80270BD6C1C04EBAC
:1012DC00840400EBC40101244C70DCE70A0610B551
:1012EC0001F007031BD403EB8302D20002F5B471A7
:1012FC0000240244014482F869410B7090F8A83232
:10130C00012B01D1022010BD0446012380F8A83224
:10131C00006800F003FE002084F8A80210BD591CE0
:10132C0001EB810100EBC10101224A70E5E700BF2E
:10133C0070B501F0070101EB8104E40005190026EA
:10134C0085F86811C5F87C21C5F88031C5F8846131
:10135C0085F8696104F5B4710144006800F0C8FEB9
:10136C00304670BDF8B501F0070101EB810400EBCC
:10137C00C404012700264D1C84F82810E263236462
:10138C00A36484F84C7084F82970666405EB8501BD
:10139C0000EBC101006800F0ABFE3046F8BD00BFA9
:1013AC0038B5436801F007059D4214D80B061FD4CD
:1013BC0001EB8101C900431801F5B47200248118B6
:1013CC0083F8694101230D708B7090F8A8229A4222
:1013DC0003D1022038BD012038BD044680F8A83264
:1013EC00006801F013FA5DB1002084F8A80238BD42
:1013FC00691C01EB810100EBC10101234B70E1E79A
:10140C0004F52C71206801F08BFAEDE738B54368D0
:10141C0001F00F029A4216D80A0601F007031FD4F6
:10142C0003EB8302D20002F5B471002402440144A0
:10143C0082F8694100250B708D7090F8A832012B51
:10144C0003D1022038BD012038BD0446012380F8A9
:10145C00A832006801F002FA84F8A852284638BD78
:10146C00591C01EB810100EBC10101224A70E1E73B
:10147C0011F0800F0ED001F00701013101EB810159
:10148C0000EBC10172B1180C012248810B810A7367
:10149C000020704701EB810100EBC10101F5B47133
:1014AC00002AF0D10A73CB8000207047002800F08E
:1014BC005A812DE9F041036882B0DD07044630D52E
:1014CC00AD494A6802F00C02042A00F034814A68E3
:1014DC0002F00C02082A00F02A816368B3F5803F01
:1014EC0000F07681002B40F0FC80A34B1A6822F4AC
:1014FC0080321A601A6822F480221A606368002B0A
:10150C0000F02381FEF758FF9B4D064605E0FEF7E1
:10151C0053FF801B642800F206812B689A03F6D5D2
:10152C0023689F0729D5944B5A6812F00C0F00F0D2
:10153C00A5805A6802F00C02082A00F09B802369EF
:10154C00002B00F034818D4B01221A60FEF734FF22
:10155C00894D064605E0FEF72FFF801B022800F29E
:10156C00E2802B68844A9807F5D51368616923F0EB
:10157C00F80343EAC103136023681A0758D45D07C4
:10158C0035D57D4BDA69D00040F1938000257C4B3A
:10159C001A68D10540F1B680E368012B00F03C815C
:1015AC00002B40F01B8103F1804303F504331A6ACE
:1015BC0022F001021A621A6A22F004021A62E3682B
:1015CC00002B00F0D280FEF7F7FE6B4E804641F206
:1015DC00883706E0FEF7F0FEC8EB0000B84200F2D8
:1015EC00A280336A9B07F5D5002D40F01B81E06982
:1015FC00D0B1614B5A6802F00C02082A00F0FB8053
:10160C00604A00210228116000F012811C46FEF78E
:10161C00D3FE054605E0FEF7CFFE401B022800F284
:10162C00828023689B01F6D4002002B0BDE8F081D3
:10163C00A369002B2DD0544B01221A60FEF7BCFE7F
:10164C004D4D064604E0FEF7B7FE801B02286AD813
:10165C006B6A9B07F7D54D4B4D4A1B68A2FB0323C6
:10166C005B0A019300BF019B5A1E0192002BF9D11A
:10167C00236884E75B68DE033FF561AF3E4B1B6874
:10168C009D0721D52369012B1ED0012002B0BDE896
:10169C00F0813D4A384D1360FEF78EFE064604E09D
:1016AC00FEF78AFE801B02283DD86B6A9F07F7D491
:1016BC00DEE7DA69012542F08052DA61DB6903F07A
:1016CC0080530093009B62E72B4A6169136823F0F7
:1016DC00F80343EAC103136023681A077FF54FAF81
:1016EC00A6E7B3F5A02F7FF400AF03F18043A3F579
:1016FC003C331A6842F480221A601A6842F4803231
:10170C001A60FBE61A681E4642F480721A60FEF7F5
:10171C0053FE07463368DA053FF53EAFFEF74CFE45
:10172C00C01B6428F6D9032002B0BDE8F0814A68DA
:10173C00D0037FF5D2AE104A126891037FF5F1AE5B
:10174C006268002A7FF4EDAE9FE7FEF735FE0A4D86
:10175C00064604E0FEF730FE801B6428E3D82B68B5
:10176C009B03F7D4DCE601207047FEF725FE024E02
:10177C00804641F2883713E00010024000004242DC
:10178C000070004060004242800442423805002054
:10179C00D34D6210FEF710FEC8EB0000B842C2D861
:1017AC00336A9807F6D4002D3FF421AF3AE03B4A58
:1017BC003B4D1360FEF700FE064604E0FEF7FCFD11
:1017CC00801B0228AFD82B689907F7D42368D4E67E
:1017DC00334A136843F4803313608FE6052B304B88
:1017EC001A6A7FF4E5AE42F004021A621A6A42F0F9
:1017FC0001021A62E3E601283FF417AF5B68226A24
:10180C0003F4803191427FF440AF606A03F47013AB
:10181C00181A18BF012008E7214A136A43F0010384
:10182C001362CCE61E4AD36923F08053D361DEE603
:10183C001D46FEF7C1FD064605E0FEF7BDFD801B0B
:10184C0002283FF670AF2B68154A9901F5D4216A2E
:10185C00B1F5803F19D0124B626A5868114C20F4D4
:10186C007410024311430122596022601C46FEF79A
:10187C00A3FD054605E0FEF79FFD401B02283FF641
:10188C0052AF23689A01F6D5CEE65168A36821F4CD
:10189C0000310B435360216ADDE700BF0000424278
:1018AC00001002406000424230B4194D86B06968A5
:1018BC00AA68EB68286802AC0FC42D8A154AADF8EB
:1018CC000450536803F00C0108290DD1C3F3834174
:1018DC0006A80144DB0311F8100C09D40E4B03FBD2
:1018EC0000F006B030BC70470C4806B030BC7047F6
:1018FC0052680A4BC2F3404203FB00F006AB1344A0
:10190C0013F8143CB0FBF3F006B030BC704700BFCA
:10191C002C4800080010024000093D0000127A001B
:10192C002DE9F04178B14C4A136803F007038B4260
:10193C000CD2136823F007030B431360136803F0F6
:10194C000703994202D00120BDE8F08103689C078F
:10195C0016D55A0705D5414A536843F4E0635360E2
:10196C0003681F0704D53D4A536843F46053536022
:10197C003A4C8368626822F0F00213436360036898
:10198C00DE0780460C4622D54368344A012B126888
:10199C005FD0022B57D09107D5D5304A41F288370A
:1019AC005168154621F003010B435360FEF704FD0B
:1019BC00064604E0FEF700FD801BB84246D86B6873
:1019CC00D8F8042003F00C03B3EB820FF2D1224AB7
:1019DC00136803F007039C4209D2136823F0070332
:1019EC0023431360136803F007039C42ABD1D8F870
:1019FC0000305A0709D51949D8F80C304A6822F436
:101A0C00E06213434B60D8F800301B0708D5134A2B
:101A1C00D8F81010536823F4605343EAC1035360A1
:101A2C00FFF742FF0D4B0E4A5B680E49C3F30313DD
:101A3C00D35C0D4A20FA03F308681360FEF77AFCB6
:101A4C000020BDE8F0819001A7D47CE70320BDE81D
:101A5C00F0819503A1D476E70020024000100240EB
:101A6C00E44800082804002038050020014B1868C1
:101A7C00704700BF380500202DE9F041044600688E
:101A8C0082B0C50727D53B4BDA69D1003CD53A4B20
:101A9C0000251A68D20545D536490B6A13F44072F5
:101AAC000FD0636803F4407082420BD00B6A334A48
:101ABC0023F4407001270026176016600862D807CF
:101ACC0047D463682B490A6A22F4407213430B62B1
:101ADC00002D39D1206883070DD410F0100007D0E9
:101AEC002449E2684B68002023F4800313434B60C5
:101AFC0002B0BDE8F0811F49A3684A6822F4404255
:101B0C0013434B602068E8E7DA69012542F0805204
:101B1C00DA61DB6903F080530193019B164B1A6861
:101B2C00D205B9D41A681E4642F480721A60FEF7C8
:101B3C0043FC07463368DB05AED4FEF73DFCC01B07
:101B4C006428F7D90320D3E7CB6923F08053CB610A
:101B5C00C0E70E46FEF730FC41F28837804605E0C0
:101B6C00FEF72AFCC8EB0000B842EBD8336A9A07A0
:101B7C00F6D5A6E700100240007000404004424237
:101B8C0084B001A880E80E0004B00020704700BFAC
:101B9C0003464FF43F420020A3F84400A3F8402032
:101BAC00704700BF44F2FF010246B0F840300020FD
:101BBC000B40A2F8403070470020704784B070B4DE
:101BCC00044604AE86E80E0000250120A4F840006F
:101BDC00A4F84050A4F84450A4F85050284670BCC7
:101BEC0004B07047024630B40C78C87832F8243010
:101BFC0023F4EC4323F070031B041B0C032800F2AA
:101C0C005C81DFE800F05E56025A002043F400438A
:101C1C0043F0800322F824300D7832F8253045F457
:101C2C0000449BB223F4E04323F0700344F080049F
:101C3C00234322F825300B7B002B46D14B78002B0D
:101C4C0000F0F580B2F85030CC880D789BB203F5DB
:101C5C00806324F0010403EB0513A4B2D4520D7875
:101C6C0032F8253002EB85045B060ED532F82530B0
:101C7C0023F0F0031B051B0D43F4004343F0C0039A
:101C8C0022F825300C7802EB8404CB78012B2388C6
:101C9C0000F02D8123F4E04323F040031B041B0CC4
:101CAC0083F0200343F4004343F08003238030BCD3
:101CBC00704743F480630020A8E743F4C06300201E
:101CCC00A4E743F400730020A0E70C7832F824302A
:101CDC0023F4F8731B051B0D43F4014343F08003FD
:101CEC0022F82430B2F850300C890D789BB203F5F1
:101CFC00806324F0010403EB0513A4B29C52B2F8E8
:101D0C0050304C890D789BB203F5816324F00104AB
:101D1C0003EB0513A4B29C524B780D78002B41D1E8
:101D2C0032F8253002EB85045B040ED532F82530F1
:101D3C0023F0F0031B051B0D43F4404343F08003D9
:101D4C0022F825300C7802EB840423885D060CD530
:101D5C00238823F0F0031B051B0D43F4004343F0D1
:101D6C00C00323800C7802EB8404238823F4804383
:101D7C0023F070031B041B0C83F4405343F4004307
:101D8C0043F080032380097832F8213023F0C0031C
:101D9C001B051B0D43F4004343F0800322F8213054
:101DAC0030BC704732F8253002EB85045B040ED54D
:101DBC0032F8253023F0F0031B051B0D43F4404390
:101DCC0043F0800322F825300C7802EB840423883E
:101DDC005B060CD5238823F0F0031B051B0D43F485
:101DEC00004343F0C00323800C7802EB8404CB78CF
:101DFC00012B238871D023F4E04323F040031B0410
:101E0C001B0C83F0200343F4004343F08003238036
:101E1C00097832F8213023F0F0039B049B0C43F437
:101E2C00004343F0800322F8213030BC7047B2F8F5
:101E3C005030CC880D789BB203F5816324F00104FB
:101E4C0003EB0513A4B29C52B2F850300D789BB240
:101E5C000C6903F20C4303EB051384B33E2C50D8EE
:101E6C006508E40748BF0135AD02ADB29D520D784F
:101E7C0032F8253002EB85045B040ED532F82530A0
:101E8C0023F0F0031B051B0D43F4404343F0800388
:101E9C0022F825300C7802EB8404238823F4804349
:101EAC0023F070031B041B0C83F4405343F40043D6
:101EBC0043F08003238030BC70470120A6E69C5A77
:101ECC0024F4F8442404240C9C529C5A6FEA444495
:101EDC006FEA5444A4B29C52C9E723F0C0031B051B
:101EEC001B0D43F4004343F08003238090E723F061
:101EFC00C0031B051B0D43F4004343F080032380F8
:101F0C004EE76509E40608BF05F1FF356FEAC564C5
:101F1C006FEA5444A4B29C52A9E700BF0B7B10B4E7
:101F2C0033BB4B780C78002B00F0B18030F82430A8
:101F3C0000EB84025B060ED530F8243023F0F0035E
:101F4C001B051B0D43F4004343F0C00320F8243061
:101F5C000A7800EB82021388002023F0C0031B05D3
:101F6C001B0D43F4004343F08003138010BC7047F7
:101F7C004B780C78002B4BD130F8243000EB8402DA
:101F8C005B040ED530F8243023F0F0031B051B0D39
:101F9C0043F4404343F0800320F824300A7800EBEC
:101FAC00820213885C060CD5138823F0F0031B0502
:101FBC001B0D43F4004343F0C00313800A7800EB7D
:101FCC008202138823F0F0031B051B0D43F400431E
:101FDC0043F0C00313800A7830F8223023F0F0036A
:101FEC009B049B0C43F4004343F0800320F8223005
:101FFC000A7830F8223023F0C0031B051B0D43F484
:10200C00004343F0800320F8223010BC00207047BE
:10201C0030F8243000EB84025B040ED530F8243009
:10202C0023F0F0031B051B0D43F4404343F08003E6
:10203C0020F824300A7800EB820213885B0648D41F
:10204C00138823F0F0031B051B0D43F4404343F0AE
:10205C00800313800A7830F8223023F0C0031B056C
:10206C001B0D43F4004343F0800320F822300A7820
:10207C0030F8223023F0F0039B049B0C43F4004314
:10208C0043F0800320F8223010BC0020704730F859
:10209C00243000EB84025B040ED530F8243023F09E
:1020AC00F0031B051B0D43F4404343F0800320F861
:1020BC0024300A7800EB82021388002023F0F0030E
:1020CC009B049B0C43F4004343F08003138010BC2F
:1020DC007047138823F0F0031B051B0D43F40043DA
:1020EC0043F0C00313800A7800EB8202A8E700BF1C
:1020FC0070B44B78012B40D00C7B54B1CA78022AB7
:10210C0000F0E380012A00F0B18070BC0121084688
:10211C0070478A690B699A4283BFD21A8A611A4640
:10212C008C61B0F850300C789BB203F20C4303EB8B
:10213C000413002A5ED11A5A22F4F8421204120C2B
:10214C001A521A5A6FEA42426FEA524292B2C25281
:10215C000A7800EB82021388002123F4804323F0D9
:10216C0070031B041B0C83F4405343F4004343F0F3
:10217C0080031380084670BC70478B690A690C7B1E
:10218C00934228BF1346002C42D0CC78022C00F08E
:10219C0036810D7830F82520B0F8504012F0400F01
:1021AC009AB200F00281A4B204F20C4404EB0513C1
:1021BC00C2524C89531C5B0800F5806202EB44024E
:1021CC004C6905D034F8025B013B22F8045BF9D171
:1021DC004B78002B40F0F1800A7830F8223023F055
:1021EC00F0031B051B0D43F4004343F0C00320F820
:1021FC00223026E03E2A00F2D0805408D60748BF91
:10220C000134A402A4B2C4520A7800EB8202A2E701
:10221C00CC889AB2531C00EB44045B0804F5806430
:10222C004D6905D035F8026B013B24F8046BF9D1EC
:10223C00B0F850300C789BB203F2044303EB041358
:10224C00C2520A78002130F8223023F4E04323F004
:10225C0040031B041B0C83F0300343F4004343F096
:10226C00800320F8223070BC084670478A690C69DC
:10227C00A24240F2B380121B8A612246002B40F02E
:10228C008880B0F850300C789BB203F2044303EB17
:10229C000413002A40F029811C5A24F4F844240425
:1022AC00240C1C521C5A6FEA44446FEA5444A4B2E6
:1022BC001C524B78002B60D1B0F850300A789BB28E
:1022CC0003F20C4303EB021335E7002B31D1B0F8CA
:1022DC0050300C789BB20A6903F2044303EB0413ED
:1022EC00002A7ED03E2A00F248815408D20748BF0B
:1022FC000134A20292B21A524B78002B40F0788231
:10230C00B0F850300C789BB20A6903F20C4303EB23
:10231C000413002A40F0DF80C25A22F4F84212045F
:10232C00120CC252C25A6FEA42426FEA524292B245
:10233C00C252CB696BB344F240050C7830F82430B0
:10234C0000EB840223F47E5323F03F035B045B0C0D
:10235C00AB4202D0002B7FF4FEAE30F8243023F0D9
:10236C00F0031B051B0D43F4004343F0C00320F89E
:10237C0024300A7800EB8202EDE6012B09D1B0F88B
:10238C0050300C789BB203F20C4392B203EB041363
:10239C00C2520A7800EB8202DDE6D5064FEA5214EF
:1023AC0000D1013C6FEAC462CEE6A3B203F204434F
:1023BC0003EB0513C2520C89FCE6012B7FF441AFF1
:1023CC000A7830F8223023F0F0031B051B0D43F480
:1023DC00404343F0800320F8223032E700248C6124
:1023EC004CE71A5A22F4F8421204120C1A521A5AD6
:1023FC006FEA42426FEA524292B21A527CE70C6A7E
:10240C00A24280F092800C7830F8242022F4F872EA
:10241C001205120D42F4014242F0800220F82420F1
:10242C000A6A0C78D21A0A6230F8242012F0400F93
:10243C004A7800F0D780002A40F03781B0F850205D
:10244C0092B202F20C4202EB0414002B40F06381B6
:10245C00225A22F4F8421204120C2252225A6FEA27
:10246C0042426FEA524292B222524C690A6A0D6998
:10247C001C44AA428EBFD21A134600220A624A7822
:10248C004C61002A40F00981B0F850200C7892B2CF
:10249C0002F2044202EB0412002B00F0F0803E2BFF
:1024AC0000F298815C08DE0748BF0134A402A4B294
:1024BC0084524C699AB20D89531C5B0800EB45029F
:1024CC0002F580623FF4BDAE34F8025B013B22F8AA
:1024DC00045BF9D1B5E63E2A5BD85408D50748BF52
:1024EC000134A20292B2C25223E73E2A5DD85408AC
:1024FC0012F001060CBF2546651CAD02ADB21D5293
:10250C004B78002B7FF439AFB0F850300A789BB27F
:10251C0003F20C4303EB021306B10134A20292B294
:10252C00C2520A7800EB820215E60D78A4B230F89C
:10253C002520631C22F4F8721205120D42F400429D
:10254C0042F0800220F82520B0F850200D7892B28D
:10255C0002F2044202EB051284520A895B0800EB7A
:10256C0042024C6902F580623FF46BAE34F8025BB8
:10257C00013B22F8045BF9D163E65409D60608BF87
:10258C0004F1FF346FEAC4626FEA524292B21A52FB
:10259C00B2E65409D20608BF04F1FF346FEAC462F4
:1025AC006FEA524292B2C252C3E6540912F01F06AD
:1025BC0014BF254604F1FF356FEAC5656FEA554532
:1025CC00ADB21D524B78002B7FF4D7AEB0F8503023
:1025DC000A789BB203F20C4303EB0213002E3FF478
:1025EC00E0AEDFE6002A76D1B0F8502092B202F2CB
:1025FC00044202EB0414002B40F08280225A22F495
:10260C00F8421204120C2252225A6FEA42426FEA2A
:10261C00524292B222524C690A6A0D691C44AA4277
:10262C008EBFD21A134600220A624A784C61002AE5
:10263C0037D1B0F850200C7892B202F20C4202EB77
:10264C0004128418DBB13E2B00F2A9805A08DE0775
:10265C0048BF0132920292B222804C699AB24D89E3
:10266C00531C5B0800EB450202F580623FF4E9ADB8
:10267C0034F8025B013B22F8045BF9D1E1E5835AA3
:10268C0023F4F8431B041B0C8352835A6FEA434315
:10269C006FEA53439BB28352D3E5012A5AD09AB2C4
:1026AC0009E7012A62D09AB2D9E7012A48D09AB236
:1026BC004D894C69013200EB4505520805F58065E2
:1026CC0026463FF4D3AE36F8024B013A25F8044BBC
:1026DC00F9D14C69CAE6012A28D09AB20D894C6905
:1026EC00013200EB4505520805F58065264693D06E
:1026FC0036F8024B013A25F8044BF9D14C698BE7BB
:10270C003E2B5AD85A08DE0748BF0132920292B2C9
:10271C0022529AB2E2E73E2B34D85A08DE0748BF61
:10272C000132920292B222529AB2C1E7B0F85050E2
:10273C009AB2ADB205F2044505EB04142252CDE772
:10274C00B0F850509AB2ADB205F20C4505EB04143A
:10275C002252ADE7B0F850400D78A4B204F2044414
:10276C009AB204EB0513C2524C69A4E6B0F850407F
:10277C000D78A4B204F20C449AB204EB0513C252C5
:10278C004C696CE75A09DD0608BF02F1FF326FEAAB
:10279C00C2626FEA524292B222529AB288E75A0946
:1027AC00DD0608BF02F1FF326FEAC2626FEA5242E5
:1027BC0092B222804C699AB251E75A09DD0608BFE1
:1027CC0002F1FF326FEAC2626FEA524292B22252B7
:1027DC009AB283E75C09DD0608BF04F1FF346FEAA7
:1027EC00C4646FEA5444A4B284524C699AB262E64F
:1027FC00012B7FF49EADB0F850300C789BB203F2F5
:10280C000C430A8A03EB0413C25292E54B780A7804
:10281C008BB930F8223023F4804323F070031B046F
:10282C001B0C83F4805343F4004343F0800320F8E3
:10283C0022300020704730F8223023F4E04323F09C
:10284C0040031B041B0C83F0100343F4004343F0C0
:10285C00800320F822300020704700BF0B7BD3B9D7
:10286C004B78D3B10A7830F822305B063DD4CB7864
:10287C00012B10D00A7830F8223023F4E04323F0F7
:10288C0040031B041B0C83F0200343F4004343F070
:10289C00800320F822300020704710B40C7830F8F8
:1028AC00243000EB84025B040ED530F8243023F086
:1028BC00F0031B051B0D43F4404343F0800320F849
:1028CC0024300A7800EB82021388002023F4804322
:1028DC0023F070031B041B0C83F4405343F400439C
:1028EC0043F08003138010BC704730F8223023F083
:1028FC00F0031B051B0D43F4004343F0C00320F809
:10290C002230B4E711B98023A0F84C300020704776
:10291C000020704700207047B0F8440080B2704728
:10292C0000207047013300EB42025B0802F5806225
:10293C0005D031F8020B013B22F8040BF9D170479A
:10294C0000EB42025808F0B502F5806213D017462E
:10295C0006468D1C37F8044B013EA4B24FEA142EE8
:10296C0005F8024C05F801EC05F10205F2D101EB7A
:10297C00400102EB8002DB0744BF13880B70F0BDF3
:10298C002223038000487047D804002022230380B0
:10299C000048704730040020222303800048704711
:1029AC0014050020D0F8B83200201873704700BF0F
:1029BC000A230380004870470805002070B50B7887
:1029CC0082B0002513F060030A460446D0F8B862C2
:1029DC00ADF806501CD0202B04D000F057FC022080
:1029EC0002B070BD4B78023B092B0AD8DFE803F02C
:1029FC00605A090909090909555190F89C32032BB1
:102A0C0062D02046114600F041FC022002B070BD9D
:102A1C004B780B2BF5D801A151F823F0072A0008AD
:102A2C000F2A00080F2A00080F2A00080F2A000896
:102A3C000F2A00087F2A00080F2A00080F2A000816
:102A4C000F2A0008692A0008592A000890F89C32BD
:102A5C00032BD6D193780020B360C1E790F89C3259
:102A6C00032BCED106F10801012200F03FFC00201F
:102A7C00B6E753881B0A222B20D0212BC1D1D28838
:102A8C001549092A28BF0922204600F02FFC0020F6
:102A9C00A6E7937800203360A2E7538800201B0A36
:102AAC0073609DE73146012200F020FC002097E77F
:102ABC00311D012200F01AFC002091E7D288074951
:102ACC004A2A28BF4A22DFE702220DF1060100F054
:102ADC000DFC002084E700BFFC0400208C040020C7
:102AEC0038B50446812101F077FDD4F8B8020025F1
:102AFC00E56218B101F0DCFDC4F8B852002038BD15
:102B0C0010B5044604230322812101F055FD012355
:102B1C00E362102001F0C8FDC4F8B80218B100231C
:102B2C000373184610BD022010BD00BF88B108B554
:102B3C00D0F8B43213B10023C0F8B43209B1C0F8E4
:102B4C00B0120123027080F89C3201F0EBFC0020E3
:102B5C0008BD0220704700BF19B1C0F8B4120020A4
:102B6C0070470220704700BF08B501F017FD002028
:102B7C0008BD00BF08B5D0F8B43213B11B68984734
:102B8C0008B1022008BD08BD08B5D0F8B4325B68A6
:102B9C009847002008BD00BF38B5044600F52A75DB
:102BAC00284600F05FFB94F8A8120120B4F8AE227E
:102BBC0001F01F038342C4F89402C4F8982215D084
:102BCC000ED3022B06D001F08001204601F012FD3D
:102BDC00002038BD2946204600F09CFA002038BD64
:102BEC002946204600F0F6F8002038BD294620463C
:102BFC0000F05AFA002038BD70B5054641B9D0F83E
:102C0C009432032B0ED0052B0C462AD0002070BD1D
:102C1C00D0F8B4329B691BB190F89C22032A26D0C1
:102C2C00022070BD1646D0F86431D0F860219A426B
:102C3C000AD9D21A9342C0F8602131468CBF92B2A5
:102C4C009AB200F079FBE1E7D0F8B4321B691BB102
:102C5C0090F89C22032A0DD0284600F075FB00202A
:102C6C0070BDC5F8941201F0C5FC204670BD9847A4
:102C7C00002070BD9847EFE770B5044669B913465C
:102C8C00D0F89422022A1DD032F004030FD094F80D
:102C9C00A0320020012B12D070BDD0F8B4325B6989
:102CAC001BB190F89C22032A40D0022070BD8021D9
:102CBC0001F0A0FC94F8A0320020012BECD184F898
:102CCC00A00270BD066A426A964227D8C369B3FB5C
:102CDC00F2F502FB15358DB99A420FD8D0F898222F
:102CEC0093420BD22A4600F00FFBC4F898522B46A5
:102CFC002A462946204601F0C9FCC8E7D4F8B4326C
:102D0C00DB681BB194F89C22032A12D08021204648
:102D1C0001F070FC204600F023FBB8E7B21A0D4618
:102D2C000262194692B200F0EFFAE0E798470020F1
:102D3C0070BD20469847E9E7402370B504461E460F
:102D4C0000221146012501F037FC33468021C4F8DE
:102D5C005851C4F864612046002201F02DFCD4F8CF
:102D6C00B8320021A561666284F89C52C4F89412B2
:102D7C006160C4F8A41223B1D4F8B43220465B6865
:102D8C009847002070BD00BF01740020704700BF41
:102D9C0090F89C22042380F89D2280F89C3200201D
:102DAC00704700BF90F89C32042B04BF90F89D3202
:102DBC0080F89C320020704790F89C22032A01D0A6
:102DCC000020704708B5D0F8B432DB6903B19847DE
:102DDC00002008BD30B50B7883B003F06003202BC6
:102DEC000C46054616D0402B14D04BB1802101F077
:102DFC0001FC2846002101F0FDFB002003B030BD92
:102E0C004B78092B19D8DFE803F04358186418687D
:102E1C0084189D23D5F8B43221469B6828469847E0
:102E2C00002003B030BD79B301210323416080F849
:102E3C009C32FFF79FFE022826D18021284601F004
:102E4C00D9FB2846002101F0D5FB002003B030BD92
:102E5C008978944C01292170EFD890F89C32022B80
:102E6C00E1D0032B40F0FA80002900F0108141687A
:102E7C00012909D0C9B2FFF787FE2178284669607D
:102E8C00FFF778FE0228D8D0284600F05DFAB4E7A8
:102E9C0090F89C32013B022BCFD8CB88022BCCD1A3
:102EAC00D0F8A4220021C16002B1C360022205F156
:102EBC000C01284600F01AFA9FE790F89C32013B6F
:102ECC00022BBAD84B88012B97D10023C5F8A4321A
:102EDC00DAE74B88012B90D1F8E78B88002BACD12B
:102EEC00CB88002BA9D14C887F2CA6D890F89C328B
:102EFC00E1B2032BA1D080F89E1201F0ABFB284667
:102F0C0000F022FA002C00F0BE80022385F89C32DF
:102F1C0073E74A880021130A013BADF80610062B13
:102F2C008BD801A151F823F0F92F0008E12F0008EC
:102F3C00CF2F0008472E0008472E0008B92F000895
:102F4C00752F0008CA88012A7FF477AF90F89C325D
:102F5C00002B3FF472AF022B79D9032B7FF46DAFAA
:102F6C00011D00F0C3F948E7037C002B7FF465AF2B
:102F7C00D0F8B4320DF106001B6B98470723437051
:102F8C00BDF806306BB1E288002A3FF47DAF934266
:102F9C0028BF134601461A462846ADF8063000F005
:102FAC00A5F9E388002B7FF428AF6DE7037C002B99
:102FBC007FF443AFD0F8B4320DF106005B6B984749
:102FCC00DEE7D2B2052A3FF638AFDFE802F03A343A
:102FDC002E282217037C002B4CD1D0F8B4320DF1E3
:102FEC0006009B6A984702234370C9E7D0F8B032B9
:102FFC000DF106011B68007C9847C1E7D0F8B03290
:10300C009B69002B3FF419AF0DF10601287C984702
:10301C00B6E7D0F8B0325B69002BF5D10DE7D0F8EC
:10302C00B0321B69002BEFD107E7D0F8B032DB6868
:10303C00002BE9D101E7D0F8B0329B68002BE3D12B
:10304C00FBE6D0F8B0325B68002BDDD1F5E601462B
:10305C00002341F8083F00F049F9CEE6802101F049
:10306C00C9FA0021284601F0C5FA21782846FFF755
:10307C008BFDC2E6D0F8B4320DF10600DB6A98473E
:10308C00022343707CE7012385F89C32B5E60223CA
:10309C00416080F89C32FFF777FD284600F054F928
:1030AC00ABE600BF8006002038B50B780D4603F068
:1030BC006003202B04460BD0402B09D043B1802158
:1030CC0001F098FA2046002101F094FA002038BD56
:1030DC0094F89C32013B022B11D82B79022B0ED881
:1030EC00D4F8B43229469B6820469847EB88002BCD
:1030FC00ECD10028EAD1204600F026F9E6E7802141
:10310C00204601F077FA2046002101F073FA0020E6
:10311C0038BD00BF70B50C78054604F06004202C57
:10312C0025D0402C23D044B1802101F063FA2846ED
:10313C00002101F05FFA002070BD4B788A88012BCA
:10314C00D6B244D01AD3032B47D190F89C32022B21
:10315C004CD0032B41D14B88002B59D1720657D040
:10316C00CB88002B54D1314601F044FA50E0D5F80D
:10317C00B43228469B689847002070BD90F89C326A
:10318C00022B52D0032B28D106F00F0303EB830341
:10319C00120600EB830357D4D3F85831002B3BD0E5
:1031AC0006F07F0303EB830400EB840404F5AA749C
:1031BC0033B13146284601F039FA00284FD00123AB
:1031CC00236021462846022200F090F8B3E790F8DD
:1031DC009C32022B0AD0032B12D0802101F00AFA68
:1031EC002146284601F006FA002070BD730613D064
:1031FC00314601F0FFF92846802101F0FBF99AE7EE
:10320C004B88002B97D1740602D0314601F000FA9E
:10321C00284600F099F88EE78021284601F0EAF95B
:10322C002846002101F0E6F985E77006F4D1110675
:10323C004CBF05F1140105F5AA71002328460B605B
:10324C00022200F053F876E79B69002BE4D006F0DD
:10325C007F0303EB830400EB84041434A8E72060A1
:10326C00AFE700BF0B7803704B784370CA788B784C
:10327C0003EB022343804A790B7903EB022383800F
:10328C00CA798B7903EB0223C380704710B50446CF
:10329C00802101F0AFF92046BDE81040002101F07B
:1032AC00A9B900BFF8B1037830B4EBB104460023E0
:1032BC0014F8015F0133DBB2002DF9D15B0002334E
:1032CC00032413800B704C7004785CB1022300252E
:1032DC005A1CD2B2CC548D5410F8014F0233DBB2CD
:1032EC00002CF5D130BC70470223E9E738B5134602
:1032FC0002250A46C3610362C0F89452002101F012
:10330C00B7F9002038BD00BF08B513460A460021A6
:10331C0001F0AEF9002008BD38B5134603250A4666
:10332C00C0F85C31C0F86031C0F89452002101F053
:10333C00ADF9002038BD00BF08B513460A46002180
:10334C0001F0A4F9002008BD08B504220023C0F840
:10335C00942219461A4601F08BF9002008BD00BFD3
:10336C0008B505220023C0F8942219461A4601F02C
:10337C008DF9002008BD00BF70B504460D46FDF761
:10338C001BF8064604E0FDF717F8801B012844D80B
:10339C0094F83C30DBB2012BF5D10222690084F8A1
:1033AC003C2041F48061082215F0010F18BF013355
:1033BC00013A4FEA5505F7D15B0203F40073D4F8D8
:1033CC0088000B430122E38784F8422018B1B4F83B
:1033DC008C10FDF771F9114D0022B4F86410206EB9
:1033EC00FDF76AF96E68FEF741FB29460C4B9522F6
:1033FC00A3FB00039B0C03FB02F24B689B1B934249
:10340C00FBD30022B4F86C10A06EFDF755F9012225
:10341C00B4F86410206EFDF74FF970BD001000E099
:10342C0083DE1B4310B50446FFF7A6FF94F8423029
:10343C00012BFBD094F8420010BD00BF70B590F882
:10344C003C300446DBB2012B4CD036D3022B1AD1C4
:10345C00B0F86410006EFDF729F968BBE58F002DFC
:10346C0040F08280B4F86C10A06EFDF71FF90028B4
:10347C0014BF042200220B2384F84220A4F840300D
:10348C0084F83C5070BD70BD94F84A20002A00F0BE
:10349C009480636C002840F0A58013F0010F0CBFE2
:1034AC000123032384F8423094F84230032B00F0BC
:1034BC00A1800123A4F8403070BDB0F86410006EF8
:1034CC00FDF7F4F80128F7D1D4F8883084F83C00E3
:1034DC00002BF1D0B4F88C101846BDE870400022D7
:1034EC00FDF7EAB8B0F86410006EFDF7DFF80128BC
:1034FC000546E1D1B4F86C10A06EFDF7D7F8B4F81E
:10350C00403006460B2B3AD094F84220012A4BD07F
:10351C00013B9BB2002BCDD194F842300B22A4F886
:10352C0040201BB194F84A30002B4DD1B4F85C30DC
:10353C00B4F85E20013303F00F0392B2934208D02B
:10354C00B4F85C20E18F92B2224482F84C10A4F8BB
:10355C005C30D4F888000028AED0B4F88C1000226F
:10356C00BDE87040FDF7A8B805F00102B4F86C1086
:10357C00A06EFDF7A1F8E38F5B08E38770BDD4F86C
:10358C00880030B12A46B4F88C10FDF795F8B4F8E1
:10359C004030002E14BF022001200021012284F8AB
:1035AC004200E1876264B3E7022B04D9E28F520830
:1035BC0078B9E287ACE73FF467AF012E14BF022263
:1035CC00002284F84220A3E7FE212046FFF7D4FE18
:1035DC00BFE742F080020128E28799D1626C013288
:1035EC00626495E713F0010F0CBF0323012384F8E9
:1035FC00423059E7FE212046FFF7BEFEB4F84030BA
:10360C0086E700BFB0F85E10B0F85C2089B292B2C9
:10361C00914203460DD0B0F85E10B0F85E2089B22E
:10362C000132014402F00F0291F84C00A3F85E2025
:10363C0070474FF0FF307047B0F85C309BB2A0F889
:10364C005E30704738B5B0F85E20B0F85C3092B29E
:10365C009BB29A420ED0B0F85E20B0F85E3092B2B7
:10366C000133024403F00F0392F84C20A0F85E30B3
:10367C00104638BDF9B104460D460120FCF7A2FEF8
:10368C00B4F85E20B4F85C3092B29BB29A420ED081
:10369C00B4F85E20B4F85E3092B22244013392F852
:1036AC004C2003F00F03A4F85E30104638BD013DEA
:1036BC00ADB2002DE1D14FF0FF32D9E7F8B5044699
:1036CC00002580F83C50B0F86410A0F85C502A46F5
:1036DC0085630570A0F85E50C0F88850C0F8805023
:1036EC00006EFCF7E9FF0120FCF76CFEB4F86410E7
:1036FC00206E0122FCF7E0FF0B220123A4F84020EE
:10370C0084F84A302046F22184F84250FFF734FE08
:10371C0020461421FFF796FFFA280DD0F2212046FF
:10372C00FFF72AFE14212046FFF78CFFFA2803D05E
:10373C00F2212046FFF720FE14212046FFF782FFDE
:10374C00C5B2AB2D00F0818025B1032D02D0002332
:10375C002370F8BDA06FB4F87C10236FB4F87470AC
:10376C00002602222270C4F88000A4F88410C4F849
:10377C008830A4F88C7084F84A600122FCF79CFF16
:10378C00032DA670E67026716671A6710DD101230A
:10379C00A370F4212046FFF7EFFD14212046FFF71C
:1037AC0051FFFCF709FE6063F8BDF3212046FFF7DB
:1037BC00E3FD14212046FFF745FFFA28C9D1C821A3
:1037CC002046FFF7D9FD14212046FFF73BFFFA28CE
:1037DC00BFD1F3212046FFF7CFFD14212046FFF780
:1037EC0031FFFA28B5D164212046FFF7C5FD14211D
:1037FC002046FFF727FFFA28ABD1F3212046FFF72D
:10380C00BBFD14212046FFF71DFFFA28A1D1502142
:10381C002046FFF7B1FD14212046FFF713FFFA28CD
:10382C0097D1F2212046FFF7A7FD14212046FFF780
:10383C0009FFFA288DD114212046FFF703FFC0B2EF
:10384C00C21E53425341A370A3E714212046FFF735
:10385C00F9FE83287FF47BAFB4F87410B4F87C3095
:10386C00206FA56F0122A4F88410A4F88C3022706C
:10387C00C4F88000C4F88850FCF71EFF00231946DA
:10388C006380A380E380237404F10F02E31D03F82B
:10389C00011F9A42FBD104F1100304F13000002106
:1038AC0003F8011F83424FF00002F9D184F8322053
:1038BC00FCF782FD6063F8BD2DE9F047866B057857
:1038CC007368012D0446C3F3811848D0022D44D1EE
:1038DC00002701E0A37101272046FFF793FE431C4C
:1038EC0034D005072FD5C5B205F007030A21E370C4
:1038FC002046FFF7A7FE411C28D0C0F34600EA067D
:10390C0048BF40F0800020710A212046FFF79AFE44
:10391C00431C1BD0C0F34600A90648BF40F08000F2
:10392C00A37840426071002BD4D00A212046FFF7C7
:10393C0089FE421C07D010F0F80301D0F82B02D1FD
:10394C004042A071C7E72046FFF776FE002F40F0FB
:10395C002181B8F1000F40F01781BDE8F087DFF846
:10396C0010A3DFF8109300272046FFF74BFE431CF3
:10397C0012D0A388184480B2F02857D050D8E02831
:10398C0000F08680E12863D14FF40073A3802046B9
:10399C00FFF738FE431CECD1002F00F0E880002329
:1039AC00A44619461F460CF8103F1CF8013F002B8B
:1039BC003ED04FEAC70E5FFA8EFE002209E00131BD
:1039CC00C9B20EEB02052044217405720132082A9B
:1039DC002ED013F0010F01F102004FEA6303F5D072
:1039EC000728ECDD0123A372E37223736373A373C3
:1039FC00E373FCF7E1FC054604E0FCF7DDFC401B3F
:103A0C000A2802D8337B002BF7D108233146E21861
:103A1C00964800F0D5FCFCF7CFFC6063BDE8F0875E
:103A2C00B0F5057FA0D0B0F53C7F11D1E5809BE7C8
:103A3C000137202FB9D10529DBDC01F1090323441F
:103A4C0004F10F01002203F8012F8B42FBD1D0E7C8
:103A5C006388184480B2592868D01DD9B0F58A7F84
:103A6C005CD034D940F21F13984267D040F2271330
:103A7C00984217D1E388002B40F0A780237A63F09B
:103A8C007F03237200236380A380E38001276BE70D
:103A9C004FF48073638067E712282ED0142823D04C
:103AAC00112833D0832803B250D9B0F5A57F00F08C
:103ABC00D48040F2B780B0F5AD7F00F0CB8040F2FF
:103ACC007722904240F0B5800122092346E040F273
:103ADC0011139842E6D1E388002B40F09E80237AA4
:103AEC0043F040032372CDE7E388002B40F0908035
:103AFC00237A43F001032372C4E7E388002B40F0E0
:103B0C008280237A43F002032372BBE7E388002B05
:103B1C0074D1237A43F004032372B3E7E388002BB8
:103B2C0067D1237A43F010032372ABE7E388002BB1
:103B3C005AD1237A43F020032372A3E7E388002BA6
:103B4C004DD1237A43F0080323729BE719F8033015
:103B5C0003F0070205FA02F252B2DB08E08804F126
:103B6C001101002836D1C85C0243CA548AE7B8F167
:103B7C00000F3FF4F2AEFCF71FFC636BC01A8045DC
:103B8C007FF60DAFBDE8F087FCF716FC636BC01A2F
:103B9C00804565D8FCF710FC054604E0FCF70CFCEE
:103BAC00401B0A2802D8337B002BF7D133683146EF
:103BBC00012B0CBF04230323E21C2C4800F000FC57
:103BCC00FCF7FAFB6063BDE8F087237A03F07F0310
:103BDC00237257E7C85C20EA0202CA5452E7237AE0
:103BEC0023F0080323724DE7237A23F0200323727A
:103BFC0048E7237A23F01003237243E7237A23F058
:103C0C00040323723EE7237A23F00203237239E77D
:103C1C00237A23F00103237234E7237A23F0400341
:103C2C0023722FE740F22F12904202D120220C2354
:103C3C0094E76FF4B4710844142813D86FF4B47279
:103C4C00534413441B7803F0070205FA02F252B2F4
:103C5C00DB0883E701220B2380E710220A237DE790
:103C6C00BDE8F0870122002378E700BFE4070020BD
:103C7C00484800086048000830B595B0282200215B
:103C8C000AA8FCF793FA012400234FF48032022592
:103C9C004FF480110AA80693059307930893099390
:103CAC0001930293039304930A940E940B92129231
:103CBC0011951391FDF7FAFB08B172B6FEE70346B6
:103CCC0021464FF480620F2405A8069507930993AB
:103CDC0005940892FDF724FE08B172B6FEE7102297
:103CEC004FF4800301A801920493FDF7C5FE08B1BF
:103CFC0072B6FEE715B030BDF0B5574B89B0002455
:103D0C00C3F8BC42FCF73AFBFFF7B6FF534A544BDF
:103D1C00D16821F08071D160D16841F08071D1609F
:103D2C001A6822F001021A601A6842F001021A6045
:103D3C005C6000BF00BF00BF03F1C0430494059456
:103D4C000694079403F500339969224641F010015B
:103D5C00996198694FF4005100F0100000900098A0
:103D6C009D69404845F020059D619D69012605F03F
:103D7C0020050195019D9D69022745F004059D6173
:103D8C009D6905F004050295029D9D6945F00805A5
:103D9C009D619B69344D03F008030393039BFCF76F
:103DAC008BFC22461E213148FCF786FC4FF4005355
:103DBC0004A92C480694049305960797FCF784FBFA
:103DCC001E2304A929480694049305960797FCF72B
:103DDC007BFB4FF4004304A92448069404930595F7
:103DEC00FCF772FB482304A921480594069404931C
:103DFC00FCF76AFB102304A91D480493069405954F
:103E0C00FCF762FB224621460A20FCF7FFFA0A2047
:103E1C00FCF734FB224621462820FCF7F7FA282031
:103E2C00FCF72CFB00F0E0FAFCF7C6FA044605E0C0
:103E3C001048FFF741FD1048FFF73EFDFCF7BCFAB8
:103E4C00001BB0F5FA7FF3D94FF400510548FCF78D
:103E5C0037FC04F5FA74EBE7E4070020F0ED00E022
:103E6C00001000E00010014000003110000801407B
:103E7C00000C0140C40600205407002070B5184EF9
:103E8C00184D84B00024304601224FF400410194B7
:103E9C00009402940394FCF70FFC2846012208219D
:103EAC00FCF70AFC284601221021FCF705FC2846E9
:103EBC0001224021FCF700FC112230466946022306
:103ECC004FF400460192039302940096FCF7FCFA1F
:103EDC005823694628460093FCF7F6FA04B070BDE7
:103EEC0000080140000C01402DE9F0474FF4FA7036
:103EFC00224DFCF767FA224C224E234B234FDFF85E
:103F0C009490234A4FF4004102204FF00008A5F88A
:103F1C006410A5F87400042128464FF0080AC2F872
:103F2C00BC32A5F87C10C3F80080C3F804802E6660
:103F3C002E67AE67C5F86890A5F86CA0FFF7BEFBBE
:103F4C0010234022204687F80C80A4F86430A4F893
:103F5C007C30AF63A4F874A0C4F86090C4F8689087
:103F6C002667A667A4F86C20FFF7A8FB07F11003DF
:103F7C0087F81C80A363BDE8F08700BFC40600204F
:103F8C0054070020000801409C060020A4060020D5
:103F9C00E4070020000C0140102806D0B0F5004FBB
:103FAC0002D10348FFF74ABA70470248FFF746BAF6
:103FBC00C40600205407002038B5ED21054690F8C2
:103FCC003140FFF72FFA00B138BD610001F0060156
:103FDC00C4F3800428462143BDE83840FFF722BAD9
:103FEC0072B6FEE70E4B82B09A690E4942F001029E
:103FFC009A619A6902F001020092009ADA6942F021
:10400C008052DA61DB6903F080530193019B4B68AA
:10401C0023F0E06343F000734B6002B0704700BFC5
:10402C000010024000000140FEE700BFFEE700BFA9
:10403C00FEE700BFFEE700BFFEE700BF704700BF12
:10404C00704700BF704700BFFCF7AAB91020FCF7FF
:10405C0041BB00BF0148FCF7E1BB00BFA80A002030
:10406C004FF40040FCF736BB704700BF01F18041B4
:10407C00D0F8BC32013953F821301BB19B6B0020B6
:10408C00187370470220704710B5114BD3F8BC421F
:10409C00206890F83230012B06D0606890F83230EE
:1040AC00012B0CD0002010BDFFF786FF23680022E7
:1040BC0083F83220606890F83230012BF2D1FFF790
:1040CC007BFF6368002283F83220002010BD00BF04
:1040DC00E407002070B5D0F8BC522A6812780AB9EF
:1040EC00002070BD0446082303228121012600F024
:1040FC0063FAE6622B681B78002BF1D008230322AD
:10410C008221204600F058FA2664002070BD00BFC2
:10411C00F0B50B7883B0002513F060030A46044613
:10412C00D0F8B872D0F8BC62ADF806501DD0202B78
:10413C0004D0FFF7ABF8022003B0F0BD4B78023B84
:10414C00092B0BD8DFE803F0887D0A0A0A0A0A6AF1
:10415C005F5590F89C32032B00F09F80204611464F
:10416C00FFF794F8022003B0F0BD4B780B2BF5D879
:10417C0001A151F823F000BF5F410008694100081C
:10418C00694100086941000869410008694100085B
:10419C00DB410008694100086941000869410008D9
:1041AC00C5410008B541000890F89C32032BD5D1CD
:1041BC0093780020BB60BFE790F89C32032BCDD1E5
:1041CC0007F108010122FFF791F80020B4E75388AA
:1041DC0091881B0A222B56F821104AD0212BBDD1D5
:1041EC0029B10B78012B6BD0022B63D000210A462E
:1041FC004EE0938856F82330002BAFD09B6B92780F
:10420C0000201A6098E7938856F823100029A5D04F
:10421C0053888A6B1B0A536000208DE7938856F8ED
:10422C00231000299AD00B78012B97D1D388012B1E
:10423C0094D181F83230D2883131FFF76DF80020FB
:10424C007AE7938856F82330002B87D0996B01229C
:10425C00FFF74CF800206FE7938856F82330002BBB
:10426C003FF47CAF996B01220431FFF73FF800203B
:10427C0062E70029BBD00B78012B15D0022BB5D1EE
:10428C00D2888B6B0121442A1960104928BF442223
:10429C002046FFF72BF800204EE702220DF1060115
:1042AC00FFF724F8002047E7D28809493F2A28BFA6
:1042BC003F22EDE7D2880749092A28BF0922E7E700
:1042CC00D2880549092A28BF0922E1E73C050020CC
:1042DC00D405002080050020C8050020F0B52B4B2C
:1042EC00D3F8BC62336883421DD07368054698428C
:1042FC0019D00378BBB1264C012BA77814D0022B14
:10430C002BD03A46217902F11903A37046F82150BB
:10431C002379AA6B27445373BB7023797F3B3B757E
:10432C00237901332371F0BDDFF868E004EB070C4F
:10433C00BEE80F00E051CCF80410BEE803009EF874
:10434C0000E0CCF80820CCF80C30CCF810008CF83D
:10435C0018E0CCF81410A278D4E7DFF83CE004EBBA
:10436C00070CBEE80F00E051CCF80410BEE80300C7
:10437C009EF800E0CCF80820CCF80C30A278CCF8F1
:10438C0010008CF818E0CCF81410BBE7E407002000
:10439C008C05002010490008F448000810B50446AC
:1043AC000448FFF79BFF0448FFF798FF0348837806
:1043BC00238010BDC4060020540700208C0500206B
:1043CC0038B590F89C42032C01D0002038BD0C7BF2
:1043DC00002CFAD10C46497B01257F39C9B22573D3
:1043EC0000F046F9002038BDF8B5FFF747FDFFF7A0
:1043FC007BFD124B1248134F134E144D144CD862C4
:10440C000022144914489F601E601D615C61FEF718
:10441C008DFB80B909491048FEF79EFB40B90E4848
:10442C00FEF7A2FB00B9F8BDBDE8F840FFF7D8BD18
:10443C00FFF7D6FDF3E7FFF7D3FDEBE754040020BD
:10444C00A94300081D410008E14000089540000800
:10445C007940000814060020E407002002680E4B87
:10446C009A4200D0704700B503F5DA33D86983B0AF
:10447C0040F40000D861DB69002203F40003012141
:10448C0001931420019BFBF7C1FF1420FBF7F6FFEF
:10449C0003B05DF804FB00BF005C004000F52C711C
:1044AC00D0F8E802FEF778BB01EB810300EBC30305
:1044BC00D3F87C21D0F8E802FEF79EBB01EB810318
:1044CC0000EBC303DA6BD0F8E802FEF7D5BB00BFF4
:1044DC00D0F8E802FEF770BC10B583680446022BD6
:1044EC0001D0FFF77DFDD4F8E8020121FEF74CFC6A
:1044FC00D4F8E802BDE81040FEF71EBC10B5044627
:10450C00D0F8E802FEF744FCA36923B1024A136910
:10451C0043F00603136110BD00ED00E0D0F8E80293
:10452C00FEF740BC1B4B70B51B4E0022C3F8E802D3
:10453C0004460825C0F8C032022118461E605D6092
:10454C0099609A61DA611A62FCF7D0F808B1FFF74A
:10455C0047FD002211461823D4F8C002FCF788FF4F
:10456C00582300228021D4F8C002FCF781FF4FF4BD
:10457C00807300228121D4F8C002FCF779FFD4F8B3
:10458C00C0024FF4A07300228221FCF771FF0020BF
:10459C0070BD00BFA80A0020005C004008B5D0F830
:1045AC00C002FCF721F903289ABF024B185C0220C9
:1045BC0008BD00BF2C49000810B51C46D0F8C0023D
:1045CC0013462246FCF758FE03289ABF014B185C91
:1045DC00022010BD2C49000808B5D0F8C002FCF729
:1045EC007DFE03289ABF024B185C022008BD00BF59
:1045FC002C49000808B5D0F8C002FCF7D1FE0328FE
:10460C009ABF024B185C022008BD00BF2C49000861
:10461C0008B5D0F8C002FCF7F9FE03289ABF024B8C
:10462C00185C022008BD00BF2C4900080B06D0F80E
:10463C00C02206D401EB810102EBC10191F86A01A1
:10464C00704701F07F03013303EB830302EBC303D9
:10465C009878704708B5D0F8C002FCF7F9FD03282C
:10466C009ABF024B185C022008BD00BF2C49000801
:10467C0008B5D0F8C002FCF775FE03289ABF024BB0
:10468C00185C022008BD00BF2C49000808B5D0F802
:10469C00C002FCF74DFE03289ABF024B185C0220A7
:1046AC0008BD00BF2C490008004870478406002054
:1046BC00704700BF704700BF12230B800048704743
:1046CC005006002004230B80004870473006002061
:1046DC00B2B1002370B41E46541EE4B2013464001F
:1046EC00020F092A02F1300586BF3732CA54CD5465
:1046FC00CA180233A3424FEA00105670F0D170BCB6
:10470C00704700BF1A200B4B0B4A08801B681068BF
:10471C00181801D10948704710B5094B08221C68BC
:10472C000849FFF7D5FF204604220749FFF7D0FFC1
:10473C00024810BDE8F7FF1FF0F7FF1F34060020FA
:10474C00ECF7FF1F360600204606002010B5044C7F
:10475C000A4604482146FEF7A5FD204610BD00BFC1
:10476C00940D00203049000810B5044C0A4604484A
:10477C002146FEF797FD204610BD00BF940D00208A
:10478C004449000810B5044C0A4604482146FEF77B
:10479C0089FD204610BD00BF940D00205C49000827
:1047AC0010B5044C0A4604482146FEF77BFD204612
:1047BC0010BD00BF940D002068490008002103E0E3
:1047CC000B4B5B58435004310A480B4B42189A422E
:1047DC00F6D30A4A02E0002342F8043B084B9A4203
:1047EC00F9D3FFF741FCFBF7B9FCFFF785FA7047EB
:1047FC0084490008000000206406002064060020A4
:10480C00140E0020FEE70000F8B500BFF8BC08BC91
:10481C009E467047F8B500BFF8BC08BC9E46704772
:10482C0002030405060708090A0B0C0D0E0F1010E5
:10483C000102000043000000000000204D00504A1F
:10484C00000000494C51004F52000000004E004641
:10485C004B0000000142003E3C3A3B450043413FC7
:10486C003D2B35000000000000141E0000001D163A
:10487C00041A1F0000061B0708212000002C190930
:10488C00171522000011050B0A1C23000000100D47
:10489C001824250000360E0C122726000037380F7E
:1048AC0033132D00000034002F2E00003900283067
:1048BC00003100000064000000002A000059005C78
:1048CC005F00000062635A5D5E60295344575B567B
:1048DC00556147000000004000000000000000008F
:1048EC000102030406070809090400000103010280
:1048FC000009211101000122440007058103080071
:10490C000A00000009040000010301010009211143
:10491C00010001223F000705810308000A00000086
:10492C000002010253544D6963726F656C656374C8
:10493C00726F6E696373000053544D3332204875A7
:10494C006D616E20696E746572666163650000004E
:10495C0048494420436F6E6669670000484944200B
:0C496C00496E74657266616365000000AE
:0849780055020008310100089E
:044980000D0100081D
:1049840000000000EC02002054030020BC030020BF
:104994000000000000000000000000000000000013
:1049A4000000000000000000000000000000000003
:1049B4000000000040480008000000000000000063
:1049C40000000000000000000000000000000000E3
:1049D40000000000000000000000000000000000D3
:1049E40000000000000000000000000000000000C3
:1049F40000000000000000000000000000000000B3
:104A040000000000000000000000000000000000A2
:104A14000000000000000000000000000000000092
:104A24000000000000000000010000000000000081
:104A34000E33CDAB34126DE6ECDE05000B00000046
:104A44000000000000000000000000000000000062
:104A54000000000000000000000000000000000052
:104A64000000000000000000000000000000000042
:104A74000000000000000000000000000000000032
:104DA40000000000000000001000000001000000EE
:104DB40009022200010100E032090400000103019C
:104DC4000200092111010001224A000705810304A0
:104DD400000700000D2B0008ED2A0008C92900086F
:104DE4000000000000000000B129000800000000DD
:104DF40000000000000000000000000099290008E5
:104E04008D290008A5290008BD290008050109020B
:104E1400A1010901A10005091901290315002501B2
:104E2400950375018102950175058101050109301C
:104E3400093109381581257F750895038106C00954
:104E44003C05FF09011500250175019502B1227584
:104E5400069501B101C0000009022200010100E031
:104E640032090400000103010200092111010001BB
:104E7400224A000705810304000A000009211101E8
:104E84000001224A000000000A060002000000405F
:104E94000100000009022200010100E032090400BF
:104EA400000103010200092111010001224A000747
:104EB40005810304000A00000024F400050109022E
:104EC400A1010901A1000509190129031500250102
:104ED400950375018102950175058103050109306A
:104EE400093109381581257F750895038106C009A4
:104EF4003C1500250175019501B1229507B101C04A
:104F040009211101000122440000000009020900E6
:104F1400000100A096000000000000000000000056
:104F2400000000000000000000000000000000007D
:104F3400000000000000000000000000000000006D
:104F44000000000000000000092111010001223FBF
:104F54000000000005010906A101050719E029E781
:104F640015002501750195088102950175088103D5
:104F74009503750105081901290391029501750529
:104F8400910395067508150025650507190029651F
:104F94008100C000C5460008D146000859470008F2
:104FA400754700081147000891470008AD470008FD
:104FB400040309041A0300000000000000000000BC
:104FC40000000000000000000000000000000000DD
:104FD400120100020000004083042B57000201026A
:044FE40003010000C5
:04000005080047C9DF
:00000001FF
